:100000000C9462000C948A000C948A000C948A0070
:100010000C948A000C948A000C948A000C94DB05E2
:100020000C948A000C948A000C948A000C941F058E
:100030000C948A000C948A000C948A000C948A0018
:100040000C947D040C948A000C94ED040C94C70469
:100050000C948A000C948A000C948A000C948A00F8
:100060000C948A000C948A00000000080002010031
:100070000003040700000000000000000000000072
:10008000240027002A000000000023002600290089
:1000900000000000250028002B00040404040404D0
:1000A0000404020202020202030303030303010227
:1000B00004081020408001020408102001020408F6
:1000C0001020000611241FBECFEFD8E0DEBFCDBF49
:1000D00011E0A0E0B1E0E0E8F6E102C005900D9289
:1000E000A033B107D9F722E0A0E3B1E001C01D922F
:1000F000A23AB207E1F710E0C2E6D0E004C02197CF
:10010000FE010E94380BC136D107C9F70E949F0635
:100110000C943E0B0C940000CF93DF93DC01862FF0
:1001200090E0FC01E255FF4F549114965C931497B4
:10013000242F30E0F901E255FF4FE4911596EC933E
:10014000159786569F4FFC017491E72FF0E0EE0F54
:10015000FF1FE057FF4FC591D4911796DC93CE93C4
:100160001697F901E656FF4FE491F0E0EE0FFF1FFE
:10017000EA57FF4F2591349119963C932E93189787
:10018000FC018491E82FF0E0EE0FFF1FE458FF4FD1
:10019000C591D4911B96DC93CE931A9781E064139A
:1001A00080E052968C93529781EC9CE21D969C9332
:1001B0008E931C97E8815E2B58831696ED91FC91E7
:1001C0001797908114968C91809589238083DF9175
:1001D000CF91089590E0FC01E859FF4F2491FC0174
:1001E000E255FF4F3491FC01E656FF4FE491EE23B8
:1001F000C9F0222339F0233001F1A8F4213019F19C
:10020000223029F1F0E0EE0FFF1FE057FF4FA591DC
:10021000B4918FB7F894EC91611126C030953E23CC
:100220003C938FBF08952730A9F02830C9F02430BF
:1002300049F7809180008F7D03C0809180008F7787
:1002400080938000DFCF84B58F7784BDDBCF84B50A
:100250008F7DFBCF8091B0008F778093B000D2CF9D
:100260008091B0008F7DF9CF3E2BDACF3FB7F89465
:100270008091440190914501A0914601B0914701C0
:1002800026B5A89B05C02F3F19F00196A11DB11DF1
:100290003FBFBA2FA92F982F8827BC01CD01620F2D
:1002A000711D811D911D42E0660F771F881F991FE8
:1002B0004A95D1F70895AF92BF92CF92DF92EF9215
:1002C000FF920F931F93CF93DF936C017B018B0100
:1002D000040F151FEB015E01AE18BF08C017D10750
:1002E00059F06991D601ED91FC910190F081E02DDA
:1002F000C6010995892B79F7C501DF91CF911F912F
:100300000F91FF90EF90DF90CF90BF90AF90089546
:10031000FC01538D448D252F30E0842F90E0821B0B
:10032000930B541710F0CF96089501970895FC0190
:10033000918D828D981761F0A28DAE0FBF2FB11DE8
:100340005D968C91928D9F5F9F73928F90E0089540
:100350008FEF9FEF0895FC01918D828D981731F0FA
:10036000828DE80FF11D858D90E008958FEF9FEF4E
:100370000895FC01918D228D892F90E0805C9F4F24
:10038000821B91098F739927089588E491E00E9458
:10039000B90121E0892B09F420E0822F089580E043
:1003A00090E0892B29F00E94C50181110C94000076
:1003B0000895FC01A48DA80FB92FB11DA35ABF4FFA
:1003C0002C91848D90E001968F739927848FA68954
:1003D000B7892C93A089B1898C91837080648C93A8
:1003E000938D848D981306C00288F389E02D808157
:1003F0008F7D80830895EF92FF920F931F93CF9389
:10040000DF93EC0181E0888F9B8D8C8D98131AC04F
:10041000E889F989808185FF15C09FB7F894EE8936
:10042000FF896083E889F989808183708064808393
:100430009FBF81E090E0DF91CF911F910F91FF90DE
:10044000EF900895F62E0B8D10E00F5F1F4F0F7386
:100450001127E02E8C8D8E110CC00FB607FCFACF41
:10046000E889F989808185FFF5CFCE010E94D90105
:10047000F1CFEB8DEC0FFD2FF11DE35AFF4FF08212
:100480009FB7F8940B8FEA89FB8980818062CFCF78
:10049000CF93DF93EC01888D8823B9F0AA89BB89BB
:1004A000E889F9898C9185FD03C0808186FD0DC0A6
:1004B0000FB607FCF7CF8C9185FFF2CF808185FFC7
:1004C000EDCFCE010E94D901E9CFDF91CF91089500
:1004D0002F923F924F925F926F927F928F929F9254
:1004E000AF92BF92CF92DF92EF92FF920F931F9342
:1004F000CF93DF9300D000D0CDB7DEB77C0183E18E
:100500008E9DF0018F9DF00D1124E35FFD4FA285BC
:10051000B3858C919481892B8C93A681B7818C9122
:100520009481892B8C938BE290E00197F1F7A6815F
:10053000B7819C918481809589238C9382898823BB
:1005400039F0A285B3859C918481809589238C9311
:1005500083E18E9D90018F9D300D1124235F3D4FCF
:100560003A832983D9011896ED91FC9119978081DE
:1005700015969C91892309F4B5C010E000E097011D
:10058000220F331F220F331F235F3D4F3C832B83EA
:10059000190131E5230E311CD1014D905D906D9014
:1005A0007C90EB81FC81EB5BFF4F40825182628249
:1005B0007382EB81FC81EB58FF4FFA83E983209132
:1005C0009E0230919F024091A0025091A102608151
:1005D0007181828193810E941D096B017C01EB81F5
:1005E000FC81E759FF4FC082D182E282F3822091E1
:1005F0009A0230919B0240919C0250919D020E9470
:100600001D099B01AC01C701B6010E9489094B017C
:100610005C01EB81FC81EF57FF4F80829182A282C7
:10062000B382B80190E080E029E330E040E050E0A0
:100630000E94EB08B901330F880B990B0E94330A13
:10064000A30192010E941C09A50194010E94BF0A06
:10065000A30192010E941D092B013C01AB81BC81C9
:10066000D9964D925D926D927C92DC97A501940192
:1006700060E070E080E89FE30E941C09A7019601FA
:100680000E94BF0AEB81FC81E35AFF4F60837183B4
:1006900082839383F1014082518262827382A981B5
:1006A000BA816D937D938D939C931397C301B2018F
:1006B0000E94FB09CB010F900F900F900F90DF91DC
:1006C000CF911F910F91FF90EF90DF90CF90BF904F
:1006D000AF909F908F907F906F905F904F903F90E2
:1006E0002F9008950E943601AB01BC01E981FA8187
:1006F00084859585B0E0A0E08855994EAF4FBF4FF7
:10070000840F951FA61FB71F86879787A08BB18B75
:100710006F01F8E0CF0ED11CA980BA8025E0A20EAF
:10072000B11C09811A81025F1F4FD601ED91FC9126
:100730008081F5019081892369F40E943601D801F6
:100740004D905D906D907C90461657066806790630
:1007500060F713CF0E943601E981FA81248535853F
:10076000620F731F811D911D66877787808B918B28
:1007700083E18E9DF0018F9DF00D1124E35FFD4F0D
:10078000FA83E9836F01F8E0CF0ED11CA980BA800B
:1007900025E0A20EB11C09811A81025F1F4FD6010C
:1007A000ED91FC918081F5019081892369F00E948F
:1007B0003601D8014D905D906D907C90461657069D
:1007C0006806790660F7D9CE0E943601E981FA8180
:1007D000048515850550110926853785021B130BE5
:1007E000060F171FCCCEFC0101900020E9F73197CE
:1007F000AF01481B590BBC0188E491E00C945B01EC
:100800008F929F92AF92BF92CF92DF92EF92FF9220
:100810000F931F93CF93DF93CDB7DEB7A1970FB69A
:10082000F894DEBF0FBECDBF6C01990FEE08FF0834
:10083000F7FE41C06DE288E491E00E94FB018C016B
:1008400022273327A9012C193D094E095F0919A256
:10085000CE0181967C019AE0892E912CA12CB12C9D
:10086000CA01B901A50194010E94EB08605DF7017E
:1008700062937F01211531054105510589F790E00B
:1008800080E0309719F0CF010E94F303800F911F91
:10089000A1960FB6F894DEBF0FBECDBFDF91CF910A
:1008A0001F910F91FF90EF90DF90CF90BF90AF908E
:1008B0009F908F900895A701960119A28E010F5D58
:1008C0001F4F8AE0C82ED12CE12CF12CCA01B901AE
:1008D000A70196010E94EB08605DF80162938F0109
:1008E000211531054105510589F790E080E03097E9
:1008F00079F2CF010E94F303CBCF1F920F920FB674
:100900000F9211242F933F938F939F93AF93BF9395
:100910008091400190914101A0914201B091430129
:1009200030913F0123E0230F2D3758F50196A11D8B
:10093000B11D20933F018093400190934101A0930A
:100940004201B09343018091440190914501A091EF
:100950004601B09147010196A11DB11D809344014C
:1009600090934501A0934601B0934701BF91AF9189
:100970009F918F913F912F910F900FBE0F901F90DD
:10098000189526E8230F0296A11DB11DD2CF1F9204
:100990000F920FB60F9211242F933F934F935F93B3
:1009A0006F937F938F939F93AF93BF93EF93FF9337
:1009B00088E491E00E94D901FF91EF91BF91AF913E
:1009C0009F918F917F916F915F914F913F912F9167
:1009D0000F900FBE0F901F9018951F920F920FB699
:1009E0000F9211242F938F939F93EF93FF93E09196
:1009F0005801F09159018081E0915E01F0915F0111
:100A000082FD1BC09081809161018F5F8F73209167
:100A10006201821741F0E0916101F0E0E85BFE4F76
:100A2000958F80936101FF91EF919F918F912F910D
:100A30000F900FBE0F901F9018958081F4CF1F92DA
:100A40000F920FB60F9211242F933F934F935F9302
:100A50006F937F938F939F93AF93BF93CF93DF93C6
:100A6000EF93FF9380913401C0910902D0E087FF9A
:100A700024C01092850010928400809134018F5F11
:100A80008093340180913401082E000C990B8C174F
:100A90009D0724F4809134018C30C4F1809184004E
:100AA00090918500049680349C4908F47AC0809126
:100AB000840090918500049676C080913401082EC0
:100AC000000C990B8C179D07C4F6E09134018E2F12
:100AD000EE0F990BFC01EE0FFF1FE80FF91FEB5112
:100AE000FE4F808186FFC9CFE09134018E2FEE0F3B
:100AF000990BFC01EE0FFF1FE80FF91FEB51FE4FA2
:100B0000808160E08F730E94EA00B7CF209184005B
:100B100030918500E09134018E2FEE0F990BFC018E
:100B2000EE0FFF1FE80FF91FEB51FE4F81819281FD
:100B3000820F931F9093890080938800E091340185
:100B40008E2FEE0F990BFC01EE0FFF1FE80FF91F20
:100B5000EB51FE4F808186FF11C0E09134018E2F52
:100B6000EE0F990BFC01EE0FFF1FE80FF91FEB5181
:100B7000FE4F808161E08F730E94EA00FF91EF9148
:100B8000DF91CF91BF91AF919F918F917F916F91A5
:100B90005F914F913F912F910F900FBE0F901F903B
:100BA000189580E49CE990938900809388008FEFEA
:100BB00080933401E3CF1F920F920FB60F9211244E
:100BC0002F933F934F935F936F937F938F939F9355
:100BD000AF93BF93EF93FF93F0E0E0E00995FF91AF
:100BE000EF91BF91AF919F918F917F916F915F91A5
:100BF0004F913F912F910F900FBE0F901F9018951E
:100C000010924B0110924A0188EE93E0A0E0B0E010
:100C100080934C0190934D01A0934E01B0934F01EE
:100C200085E091E0909349018093480185EC90E044
:100C3000909355018093540184EC90E09093570178
:100C40008093560180EC90E0909359018093580175
:100C500081EC90E090935B0180935A0182EC90E0EC
:100C600090935D0180935C0186EC90E090935F012E
:100C700080935E01109261011092620110926301F3
:100C8000109264014BE06CE08DE092E00E948C00D9
:100C900049E06AE080E292E00E948C0047E068E070
:100CA00083E392E00E948C0080E090E0A0E8BFE344
:100CB00080939A0290939B02A0939C02B0939D0212
:100CC00040E050E060E07FE340939E0250939F023B
:100CD0006093A0027093A10280938202909383029A
:100CE000A0938402B093850280938602909387023A
:100CF000A0938802B093890280938A0290938B021A
:100D0000A0938C02B0938D02809109028C3098F4EC
:100D100091E0980F9093090280930A0290E0FC0101
:100D2000EE0FFF1FE80FF91FEB51FE4F88EB9BE022
:100D30009283818308958FEF80930A0208957894B7
:100D400084B5826084BD84B5816084BD85B58260D0
:100D500085BD85B5816085BD80916E008160809381
:100D60006E001092810080918100826080938100EA
:100D700080918100816080938100809180008160FA
:100D8000809380008091B10084608093B100809155
:100D9000B00081608093B00080917A00846080937D
:100DA0007A0080917A00826080937A0080917A0044
:100DB000816080937A0080917A00806880937A00C5
:100DC0001092C100E0915801F091590182E08083B6
:100DD000E0915401F09155011082E0915601F0919B
:100DE00057018FEC808310926001E0915C01F091DB
:100DF0005D0186E08083E0915A01F0915B01808182
:100E000080618083E0915A01F0915B01808188606C
:100E10008083E0915A01F0915B018081806880833A
:100E2000E0915A01F0915B0180818F7D80838091F8
:100E30000A028C3008F068C0E4EBF0E02491E0EAAC
:100E4000F0E08491882399F090E0880F991FFC01CD
:100E5000E458FF4FA591B491FC01E057FF4F8591F5
:100E600094918FB7F894EC91E22BEC938FBF809123
:100E70000A02282F30E0F901EE0FFF1FE20FF31FE7
:100E8000EB51FE4F9081907C9660908310920B0204
:100E900010920C022CE0622F0E942C0B829FB0015A
:100EA000112430E020E0AB01420F531FFA01EE0F96
:100EB000FF1FE40FF51FEB51FE4F908196FD16C00A
:100EC0002F5F3F4F2C30310571F781110FC0109209
:100ED000800082E08093810010928500109284004F
:100EE000B19A80916F00826080936F00E0910A0256
:100EF0008E2F90E0FC01EE0FFF1FE80FF91FEB5162
:100F0000FE4F80818064808383E191E00E94F3033F
:100F100088E291E00E94F303C8E5D2E094EB492E09
:100F2000512C612C712C80E0282E80E0382E8FB758
:100F3000F894C0904001D0904101E0904201F090BF
:100F400043018FBF80913B0190913C01A0913D01F5
:100F5000B0913E01A7019601281B390B4A0B5B0B90
:100F6000DA01C9010397A105B10508F48FC0C09249
:100F70003B01D0923C01E0923D01F0923E01809114
:100F8000390190913A0120910001222309F4E5C032
:100F9000019690933A01809339018A35910514F0B6
:100FA00010920001A0913901B0913A01A03242E0C3
:100FB000B407BCF580910B0228E830E0281B31090A
:100FC00087FD3395220F331F220F331F4901330F43
:100FD000AA08BB0880910C029E01281B310987FDDD
:100FE0003395220F331F220F331F032E000C440BA7
:100FF000550B281939094A095B09A53BB10514F0BD
:10100000A4EBB0E0B7FF02C0B0E0A0E00E94E308AC
:10101000A30192010E94B908280D391D4A1D5B1DCC
:10102000D90140910A024C3088F580910B0228E8E2
:1010300030E0281B310987FD3395C901880F991FBE
:10104000880F991FA817B90784F080910C029E01A0
:10105000281B310987FD3395C901880F991F880F17
:10106000991FA817B9070CF4CD010297880F991F93
:101070006FB7F89450E09A01220F331F240F351FE9
:10108000F901EB51FE4F928381836FBF809135014F
:1010900090913601A0913701B0913801A7019601D6
:1010A000281B390B4A0B5B0BDA01C901C297A1055A
:1010B000B10508F446C0C0923501D0923601E092E5
:1010C0003701F0923801A0903901B0903A0190E0D8
:1010D00080E00E9468028C0181E090E00E9468023A
:1010E0006C0182E090E00E9468027C01C5010E94D0
:1010F00000048BE291E00E94F303C8010E94000407
:101100008BE291E00E94F303C8010E9400048BE28D
:1011100091E00E94F303C6010E9400048BE291E07B
:101120000E94F303C7010E9400048BE291E00E9439
:10113000F3038DE291E00E94F30388E291E00E94C4
:10114000F3032114310409F4F2CE0E94C50188236F
:1011500009F4EDCE0E940000E6CE019790933A018B
:101160008093390189970CF01DCF31E03093000155
:1011700019CF052E97FB1EF400940E94D00857FD4E
:1011800007D00E94EB0807FC03D04EF40C94D00863
:1011900050954095309521953F4F4F4F5F4F0895A3
:1011A00090958095709561957F4F8F4F9F4F0895D3
:1011B0000E940D09A59F900DB49F900DA49F800DD6
:1011C000911D11240895B7FF0C94D8080E94D808E7
:1011D000821B930B0895A1E21A2EAA1BBB1BFD01D3
:1011E0000DC0AA1FBB1FEE1FFF1FA217B307E40706
:1011F000F50720F0A21BB30BE40BF50B661F771F5E
:10120000881F991F1A9469F760957095809590953D
:101210009B01AC01BD01CF010895A29FB001B39F16
:10122000C001A39F700D811D1124911DB29F700DEF
:10123000811D1124911D08955058BB27AA270E9493
:1012400034090C94850A0E94770A38F00E947E0ABD
:1012500020F039F49F3F19F426F40C94740A0EF42C
:10126000E095E7FB0C946E0AE92F0E94960A58F36A
:10127000BA17620773078407950720F079F4A6F57B
:101280000C94B80A0EF4E0950B2EBA2FA02D0B018A
:10129000B90190010C01CA01A0011124FF27591BBB
:1012A00099F0593F50F4503E68F11A16F040A22FC1
:1012B000232F342F4427585FF3CF46953795279532
:1012C000A795F0405395C9F77EF41F16BA0B620B31
:1012D000730B840BBAF09150A1F0FF0FBB1F661F78
:1012E000771F881FC2F70EC0BA0F621F731F841FBB
:1012F00048F4879577956795B795F7959E3F08F0E1
:10130000B0CF9395880F08F09927EE0F97958795A2
:1013100008950E949D090C94850A0E947E0A58F047
:101320000E94770A40F029F45F3F29F00C946E0A7E
:1013300051110C94B90A0C94740A0E94960A68F32D
:101340009923B1F3552391F3951B550BBB27AA277E
:1013500062177307840738F09F5F5F4F220F331FB8
:10136000441FAA1FA9F335D00E2E3AF0E0E832D080
:1013700091505040E695001CCAF72BD0FE2F29D083
:10138000660F771F881FBB1F261737074807AB0755
:10139000B0E809F0BB0B802DBF01FF2793585F4FCA
:1013A0003AF09E3F510578F00C946E0A0C94B90AFD
:1013B0005F3FE4F3983ED4F3869577956795B795AC
:1013C000F7959F5FC9F7880F911D9695879597F9B7
:1013D0000895E1E0660F771F881FBB1F6217730730
:1013E0008407BA0720F0621B730B840BBA0BEE1F45
:1013F00088F7E09508950E94020A6894B1110C9450
:10140000B90A08950E949E0A88F09F5798F0B92F54
:101410009927B751B0F0E1F0660F771F881F991F29
:101420001AF0BA95C9F714C0B13091F00E94B80A09
:10143000B1E008950C94B80A672F782F8827B85F19
:1014400039F0B93FCCF3869577956795B395D9F781
:101450003EF490958095709561957F4F8F4F9F4F8B
:101460000895E89409C097FB3EF490958095709597
:1014700061957F4F8F4F9F4F9923A9F0F92F96E9E0
:10148000BB279395F695879577956795B795F11155
:10149000F8CFFAF4BB0F11F460FF1BC06F5F7F4FF2
:1014A0008F4F9F4F16C0882311F096E911C0772304
:1014B00021F09EE8872F762F05C0662371F096E80D
:1014C000862F70E060E02AF09A95660F771F881FDC
:1014D000DAF7880F9695879597F9089597F99F679A
:1014E00080E870E060E008959FEF80EC08950024AC
:1014F0000A941616170618060906089500240A9479
:1015000012161306140605060895092E0394000CFE
:1015100011F4882352F0BB0F40F4BF2B11F460FF8D
:1015200004C06F5F7F4F8F4F9F4F089557FD9058B6
:10153000440F551F59F05F3F71F04795880F97FB97
:10154000991F61F09F3F79F0879508951216130651
:101550001406551FF2CF4695F1DF08C01616170680
:101560001806991FF1CF86957105610508940895B5
:10157000E894BB2766277727CB0197F908950E9447
:10158000D20A0C94850A0E94770A38F00E947E0ADB
:1015900020F0952311F00C946E0A0C94740A112417
:1015A0000C94B90A0E94960A70F3959FC1F3950FA7
:1015B00050E0551F629FF001729FBB27F00DB11DD7
:1015C000639FAA27F00DB11DAA1F649F6627B00D67
:1015D000A11D661F829F2227B00DA11D621F739F50
:1015E000B00DA11D621F839FA00D611D221F749F5E
:1015F0003327A00D611D231F849F600D211D822FA5
:10160000762F6A2F11249F5750409AF0F1F08823CB
:101610004AF0EE0FFF1FBB1F661F771F881F9150F8
:101620005040A9F79E3F510580F00C946E0A0C942F
:10163000B90A5F3FE4F3983ED4F3869577956795B2
:10164000B795F795E7959F5FC1F7FE2B880F911D22
:101650009695879597F90895991B79E004C0991F8D
:10166000961708F0961B881F7A95C9F780950895FC
:10167000EE0FFF1F0590F491E02D0994F894FFCF31
:101680000100000000FB015B0188014802B90197DD
:1016900001AB01536572766F2053657475702063DA
:1016A0006F6D706C657465000D0A002C00310000D0
:00000001FF
